{
  "contractName": "Adoption",
  "abi": [
    {
      "inputs": [],
      "payable": false,
      "stateMutability": "nonpayable",
      "type": "constructor"
    },
    {
      "constant": true,
      "inputs": [
        {
          "internalType": "uint256",
          "name": "",
          "type": "uint256"
        }
      ],
      "name": "adopters",
      "outputs": [
        {
          "internalType": "address",
          "name": "",
          "type": "address"
        }
      ],
      "payable": false,
      "stateMutability": "view",
      "type": "function"
    },
    {
      "constant": true,
      "inputs": [
        {
          "internalType": "address",
          "name": "",
          "type": "address"
        },
        {
          "internalType": "uint256",
          "name": "",
          "type": "uint256"
        }
      ],
      "name": "adoptionHistory",
      "outputs": [
        {
          "internalType": "uint256",
          "name": "",
          "type": "uint256"
        }
      ],
      "payable": false,
      "stateMutability": "view",
      "type": "function"
    },
    {
      "constant": true,
      "inputs": [
        {
          "internalType": "uint256",
          "name": "",
          "type": "uint256"
        }
      ],
      "name": "likes",
      "outputs": [
        {
          "internalType": "uint256",
          "name": "",
          "type": "uint256"
        }
      ],
      "payable": false,
      "stateMutability": "view",
      "type": "function"
    },
    {
      "constant": true,
      "inputs": [
        {
          "internalType": "uint256",
          "name": "",
          "type": "uint256"
        }
      ],
      "name": "newPets",
      "outputs": [
        {
          "internalType": "string",
          "name": "name",
          "type": "string"
        },
        {
          "internalType": "uint256",
          "name": "age",
          "type": "uint256"
        },
        {
          "internalType": "string",
          "name": "location",
          "type": "string"
        },
        {
          "internalType": "string",
          "name": "breed",
          "type": "string"
        },
        {
          "internalType": "address",
          "name": "adopter",
          "type": "address"
        },
        {
          "internalType": "uint256",
          "name": "likes",
          "type": "uint256"
        }
      ],
      "payable": false,
      "stateMutability": "view",
      "type": "function"
    },
    {
      "constant": true,
      "inputs": [],
      "name": "newPetsCount",
      "outputs": [
        {
          "internalType": "uint256",
          "name": "",
          "type": "uint256"
        }
      ],
      "payable": false,
      "stateMutability": "view",
      "type": "function"
    },
    {
      "constant": true,
      "inputs": [],
      "name": "owner",
      "outputs": [
        {
          "internalType": "address",
          "name": "",
          "type": "address"
        }
      ],
      "payable": false,
      "stateMutability": "view",
      "type": "function"
    },
    {
      "constant": true,
      "inputs": [],
      "name": "returnFee",
      "outputs": [
        {
          "internalType": "uint256",
          "name": "",
          "type": "uint256"
        }
      ],
      "payable": false,
      "stateMutability": "view",
      "type": "function"
    },
    {
      "constant": false,
      "inputs": [
        {
          "internalType": "uint256",
          "name": "petId",
          "type": "uint256"
        }
      ],
      "name": "adopt",
      "outputs": [
        {
          "internalType": "uint256",
          "name": "",
          "type": "uint256"
        }
      ],
      "payable": false,
      "stateMutability": "nonpayable",
      "type": "function"
    },
    {
      "constant": true,
      "inputs": [],
      "name": "getAdopters",
      "outputs": [
        {
          "internalType": "address[16]",
          "name": "",
          "type": "address[16]"
        }
      ],
      "payable": false,
      "stateMutability": "view",
      "type": "function"
    },
    {
      "constant": false,
      "inputs": [
        {
          "internalType": "string",
          "name": "name",
          "type": "string"
        },
        {
          "internalType": "uint256",
          "name": "age",
          "type": "uint256"
        },
        {
          "internalType": "string",
          "name": "location",
          "type": "string"
        },
        {
          "internalType": "string",
          "name": "breed",
          "type": "string"
        }
      ],
      "name": "registerPet",
      "outputs": [],
      "payable": true,
      "stateMutability": "payable",
      "type": "function"
    },
    {
      "constant": true,
      "inputs": [],
      "name": "getNewPetsCount",
      "outputs": [
        {
          "internalType": "uint256",
          "name": "",
          "type": "uint256"
        }
      ],
      "payable": false,
      "stateMutability": "view",
      "type": "function"
    },
    {
      "constant": true,
      "inputs": [
        {
          "internalType": "uint256",
          "name": "index",
          "type": "uint256"
        }
      ],
      "name": "getNewPet",
      "outputs": [
        {
          "internalType": "string",
          "name": "",
          "type": "string"
        },
        {
          "internalType": "uint256",
          "name": "",
          "type": "uint256"
        },
        {
          "internalType": "string",
          "name": "",
          "type": "string"
        },
        {
          "internalType": "string",
          "name": "",
          "type": "string"
        },
        {
          "internalType": "address",
          "name": "",
          "type": "address"
        }
      ],
      "payable": false,
      "stateMutability": "view",
      "type": "function"
    },
    {
      "constant": false,
      "inputs": [
        {
          "internalType": "uint256",
          "name": "petId",
          "type": "uint256"
        }
      ],
      "name": "likePet",
      "outputs": [],
      "payable": false,
      "stateMutability": "nonpayable",
      "type": "function"
    },
    {
      "constant": true,
      "inputs": [
        {
          "internalType": "uint256",
          "name": "petId",
          "type": "uint256"
        }
      ],
      "name": "getLikes",
      "outputs": [
        {
          "internalType": "uint256",
          "name": "",
          "type": "uint256"
        }
      ],
      "payable": false,
      "stateMutability": "view",
      "type": "function"
    },
    {
      "constant": false,
      "inputs": [],
      "name": "donate",
      "outputs": [],
      "payable": true,
      "stateMutability": "payable",
      "type": "function"
    },
    {
      "constant": false,
      "inputs": [
        {
          "internalType": "uint256",
          "name": "petId",
          "type": "uint256"
        }
      ],
      "name": "returnPet",
      "outputs": [],
      "payable": true,
      "stateMutability": "payable",
      "type": "function"
    },
    {
      "constant": true,
      "inputs": [
        {
          "internalType": "address",
          "name": "user",
          "type": "address"
        }
      ],
      "name": "getAdoptionHistory",
      "outputs": [
        {
          "internalType": "uint256[]",
          "name": "",
          "type": "uint256[]"
        }
      ],
      "payable": false,
      "stateMutability": "view",
      "type": "function"
    },
    {
      "constant": true,
      "inputs": [],
      "name": "getBalance",
      "outputs": [
        {
          "internalType": "uint256",
          "name": "",
          "type": "uint256"
        }
      ],
      "payable": false,
      "stateMutability": "view",
      "type": "function"
    },
    {
      "constant": false,
      "inputs": [
        {
          "internalType": "uint256",
          "name": "amount",
          "type": "uint256"
        }
      ],
      "name": "withdraw",
      "outputs": [],
      "payable": false,
      "stateMutability": "nonpayable",
      "type": "function"
    },
    {
      "constant": true,
      "inputs": [
        {
          "internalType": "address",
          "name": "user",
          "type": "address"
        }
      ],
      "name": "getAdoptionHistoryCount",
      "outputs": [
        {
          "internalType": "uint256",
          "name": "",
          "type": "uint256"
        }
      ],
      "payable": false,
      "stateMutability": "view",
      "type": "function"
    },
    {
      "constant": true,
      "inputs": [
        {
          "internalType": "address",
          "name": "user",
          "type": "address"
        },
        {
          "internalType": "uint256",
          "name": "idx",
          "type": "uint256"
        }
      ],
      "name": "getAdoptionHistoryAt",
      "outputs": [
        {
          "internalType": "uint256",
          "name": "",
          "type": "uint256"
        }
      ],
      "payable": false,
      "stateMutability": "view",
      "type": "function"
    }
  ],
  "bytecode": "0x608060405234801561001057600080fd5b50336000806101000a81548173ffffffffffffffffffffffffffffffffffffffff021916908373ffffffffffffffffffffffffffffffffffffffff16021790555061225f806100606000396000f3fe60806040526004361061012a5760003560e01c80638da5cb5b116100ab578063d2046e861161006f578063d2046e861461090d578063d7c677fc14610938578063de440fe914610963578063e16589071461099e578063ed88c68e14610b91578063fca98f1114610b9b5761012a565b80638da5cb5b146106485780639fe83a0d1461069f578063a209081e14610865578063bdb92e8e146108b4578063c5c1ab00146108e25761012a565b80633de4eb17116100f25780633de4eb171461030f57806343ae80d314610362578063595bf6d1146103dd5780637e9dffe6146105aa5780638588b2c5146105f95761012a565b8063100ce6371461012f57806312065fe01461019457806314c2b9c8146101bf5780632e1a7d4d1461026557806339e776ae146102a0575b600080fd5b34801561013b57600080fd5b5061017e6004803603602081101561015257600080fd5b81019080803573ffffffffffffffffffffffffffffffffffffffff169060200190929190505050610c0a565b6040518082815260200191505060405180910390f35b3480156101a057600080fd5b506101a9610c56565b6040518082815260200191505060405180910390f35b3480156101cb57600080fd5b5061020e600480360360208110156101e257600080fd5b81019080803573ffffffffffffffffffffffffffffffffffffffff169060200190929190505050610c5e565b6040518080602001828103825283818151815260200191508051906020019060200280838360005b83811015610251578082015181840152602081019050610236565b505050509050019250505060405180910390f35b34801561027157600080fd5b5061029e6004803603602081101561028857600080fd5b8101908080359060200190929190505050610cf5565b005b3480156102ac57600080fd5b506102f9600480360360408110156102c357600080fd5b81019080803573ffffffffffffffffffffffffffffffffffffffff16906020019092919080359060200190929190505050610e9e565b6040518082815260200191505060405180910390f35b34801561031b57600080fd5b50610324610ecc565b6040518082601060200280838360005b8381101561034f578082015181840152602081019050610334565b5050505090500191505060405180910390f35b34801561036e57600080fd5b5061039b6004803603602081101561038557600080fd5b8101908080359060200190929190505050610f4d565b604051808273ffffffffffffffffffffffffffffffffffffffff1673ffffffffffffffffffffffffffffffffffffffff16815260200191505060405180910390f35b3480156103e957600080fd5b506104166004803603602081101561040057600080fd5b8101908080359060200190929190505050610f80565b604051808060200187815260200180602001806020018673ffffffffffffffffffffffffffffffffffffffff1673ffffffffffffffffffffffffffffffffffffffff16815260200185815260200184810384528a818151815260200191508051906020019080838360005b8381101561049c578082015181840152602081019050610481565b50505050905090810190601f1680156104c95780820380516001836020036101000a031916815260200191505b50848103835288818151815260200191508051906020019080838360005b838110156105025780820151818401526020810190506104e7565b50505050905090810190601f16801561052f5780820380516001836020036101000a031916815260200191505b50848103825287818151815260200191508051906020019080838360005b8381101561056857808201518184015260208101905061054d565b50505050905090810190601f1680156105955780820380516001836020036101000a031916815260200191505b50995050505050505050505060405180910390f35b3480156105b657600080fd5b506105e3600480360360208110156105cd57600080fd5b81019080803590602001909291905050506111b1565b6040518082815260200191505060405180910390f35b34801561060557600080fd5b506106326004803603602081101561061c57600080fd5b81019080803590602001909291905050506111c9565b6040518082815260200191505060405180910390f35b34801561065457600080fd5b5061065d61159b565b604051808273ffffffffffffffffffffffffffffffffffffffff1673ffffffffffffffffffffffffffffffffffffffff16815260200191505060405180910390f35b3480156106ab57600080fd5b506106d8600480360360208110156106c257600080fd5b81019080803590602001909291905050506115c0565b604051808060200186815260200180602001806020018573ffffffffffffffffffffffffffffffffffffffff1673ffffffffffffffffffffffffffffffffffffffff168152602001848103845289818151815260200191508051906020019080838360005b8381101561075857808201518184015260208101905061073d565b50505050905090810190601f1680156107855780820380516001836020036101000a031916815260200191505b50848103835287818151815260200191508051906020019080838360005b838110156107be5780820151818401526020810190506107a3565b50505050905090810190601f1680156107eb5780820380516001836020036101000a031916815260200191505b50848103825286818151815260200191508051906020019080838360005b83811015610824578082015181840152602081019050610809565b50505050905090810190601f1680156108515780820380516001836020036101000a031916815260200191505b509850505050505050505060405180910390f35b34801561087157600080fd5b5061089e6004803603602081101561088857600080fd5b81019080803590602001909291905050506118f6565b6040518082815260200191505060405180910390f35b6108e0600480360360208110156108ca57600080fd5b8101908080359060200190929190505050611913565b005b3480156108ee57600080fd5b506108f7611d50565b6040518082815260200191505060405180910390f35b34801561091957600080fd5b50610922611d5a565b6040518082815260200191505060405180910390f35b34801561094457600080fd5b5061094d611d60565b6040518082815260200191505060405180910390f35b34801561096f57600080fd5b5061099c6004803603602081101561098657600080fd5b8101908080359060200190929190505050611d6b565b005b610b8f600480360360808110156109b457600080fd5b81019080803590602001906401000000008111156109d157600080fd5b8201836020820111156109e357600080fd5b80359060200191846001830284011164010000000083111715610a0557600080fd5b91908080601f016020809104026020016040519081016040528093929190818152602001838380828437600081840152601f19601f8201169050808301925050505050505091929192908035906020019092919080359060200190640100000000811115610a7257600080fd5b820183602082011115610a8457600080fd5b80359060200191846001830284011164010000000083111715610aa657600080fd5b91908080601f016020809104026020016040519081016040528093929190818152602001838380828437600081840152601f19601f82011690508083019250505050505050919291929080359060200190640100000000811115610b0957600080fd5b820183602082011115610b1b57600080fd5b80359060200191846001830284011164010000000083111715610b3d57600080fd5b91908080601f016020809104026020016040519081016040528093929190818152602001838380828437600081840152601f19601f820116905080830192505050505050509192919290505050611d91565b005b610b99611f3a565b005b348015610ba757600080fd5b50610bf460048036036040811015610bbe57600080fd5b81019080803573ffffffffffffffffffffffffffffffffffffffff16906020019092919080359060200190929190505050611fb2565b6040518082815260200191505060405180910390f35b6000601460008373ffffffffffffffffffffffffffffffffffffffff1673ffffffffffffffffffffffffffffffffffffffff168152602001908152602001600020805490509050919050565b600047905090565b6060601460008373ffffffffffffffffffffffffffffffffffffffff1673ffffffffffffffffffffffffffffffffffffffff168152602001908152602001600020805480602002602001604051908101604052809291908181526020018280548015610ce957602002820191906000526020600020905b815481526020019060010190808311610cd5575b50505050509050919050565b6000809054906101000a900473ffffffffffffffffffffffffffffffffffffffff1673ffffffffffffffffffffffffffffffffffffffff163373ffffffffffffffffffffffffffffffffffffffff1614610db7576040517f08c379a00000000000000000000000000000000000000000000000000000000081526004018080602001828103825260178152602001807f4f6e6c79206f776e65722063616e20776974686472617700000000000000000081525060200191505060405180910390fd5b47811115610e2d576040517f08c379a00000000000000000000000000000000000000000000000000000000081526004018080602001828103825260148152602001807f496e73756666696369656e742062616c616e636500000000000000000000000081525060200191505060405180910390fd5b60008060009054906101000a900473ffffffffffffffffffffffffffffffffffffffff1690508073ffffffffffffffffffffffffffffffffffffffff166108fc839081150290604051600060405180830381858888f19350505050158015610e99573d6000803e3d6000fd5b505050565b60146020528160005260406000208181548110610eb757fe5b90600052602060002001600091509150505481565b610ed46120c8565b6001601080602002604051908101604052809291908260108015610f43576020028201915b8160009054906101000a900473ffffffffffffffffffffffffffffffffffffffff1673ffffffffffffffffffffffffffffffffffffffff1681526020019060010190808311610ef9575b5050505050905090565b60018160108110610f5a57fe5b016000915054906101000a900473ffffffffffffffffffffffffffffffffffffffff1681565b60118181548110610f8d57fe5b9060005260206000209060060201600091509050806000018054600181600116156101000203166002900480601f0160208091040260200160405190810160405280929190818152602001828054600181600116156101000203166002900480156110395780601f1061100e57610100808354040283529160200191611039565b820191906000526020600020905b81548152906001019060200180831161101c57829003601f168201915b505050505090806001015490806002018054600181600116156101000203166002900480601f0160208091040260200160405190810160405280929190818152602001828054600181600116156101000203166002900480156110dd5780601f106110b2576101008083540402835291602001916110dd565b820191906000526020600020905b8154815290600101906020018083116110c057829003601f168201915b505050505090806003018054600181600116156101000203166002900480601f01602080910402602001604051908101604052809291908181526020018280546001816001161561010002031660029004801561117b5780601f106111505761010080835404028352916020019161117b565b820191906000526020600020905b81548152906001019060200180831161115e57829003601f168201915b5050505050908060040160009054906101000a900473ffffffffffffffffffffffffffffffffffffffff16908060050154905086565b60136020528060005260406000206000915090505481565b600080821015611241576040517f08c379a000000000000000000000000000000000000000000000000000000000815260040180806020018281038252600d8152602001807f496e76616c69642070657449640000000000000000000000000000000000000081525060200191505060405180910390fd5b601082101561136c57600073ffffffffffffffffffffffffffffffffffffffff166001836010811061126f57fe5b0160009054906101000a900473ffffffffffffffffffffffffffffffffffffffff1673ffffffffffffffffffffffffffffffffffffffff161461131a576040517f08c379a00000000000000000000000000000000000000000000000000000000081526004018080602001828103825260138152602001807f50657420616c72656164792061646f707465640000000000000000000000000081525060200191505060405180910390fd5b336001836010811061132857fe5b0160006101000a81548173ffffffffffffffffffffffffffffffffffffffff021916908373ffffffffffffffffffffffffffffffffffffffff16021790555061152a565b600060108303905060125481106113eb576040517f08c379a000000000000000000000000000000000000000000000000000000000815260040180806020018281038252600d8152602001807f496e76616c69642070657449640000000000000000000000000000000000000081525060200191505060405180910390fd5b600073ffffffffffffffffffffffffffffffffffffffff166011828154811061141057fe5b906000526020600020906006020160040160009054906101000a900473ffffffffffffffffffffffffffffffffffffffff1673ffffffffffffffffffffffffffffffffffffffff16146114cb576040517f08c379a00000000000000000000000000000000000000000000000000000000081526004018080602001828103825260138152602001807f50657420616c72656164792061646f707465640000000000000000000000000081525060200191505060405180910390fd5b33601182815481106114d957fe5b906000526020600020906006020160040160006101000a81548173ffffffffffffffffffffffffffffffffffffffff021916908373ffffffffffffffffffffffffffffffffffffffff160217905550505b601460003373ffffffffffffffffffffffffffffffffffffffff1673ffffffffffffffffffffffffffffffffffffffff168152602001908152602001600020829080600181540180825580915050906001820390600052602060002001600090919290919091505550819050919050565b6000809054906101000a900473ffffffffffffffffffffffffffffffffffffffff1681565b6060600060608060006012548610611640576040517f08c379a000000000000000000000000000000000000000000000000000000000815260040180806020018281038252600d8152602001807f496e76616c696420696e6465780000000000000000000000000000000000000081525060200191505060405180910390fd5b6116486120eb565b6011878154811061165557fe5b90600052602060002090600602016040518060c0016040529081600082018054600181600116156101000203166002900480601f0160208091040260200160405190810160405280929190818152602001828054600181600116156101000203166002900480156117075780601f106116dc57610100808354040283529160200191611707565b820191906000526020600020905b8154815290600101906020018083116116ea57829003601f168201915b5050505050815260200160018201548152602001600282018054600181600116156101000203166002900480601f0160208091040260200160405190810160405280929190818152602001828054600181600116156101000203166002900480156117b35780601f10611788576101008083540402835291602001916117b3565b820191906000526020600020905b81548152906001019060200180831161179657829003601f168201915b50505050508152602001600382018054600181600116156101000203166002900480601f0160208091040260200160405190810160405280929190818152602001828054600181600116156101000203166002900480156118555780601f1061182a57610100808354040283529160200191611855565b820191906000526020600020905b81548152906001019060200180831161183857829003601f168201915b505050505081526020016004820160009054906101000a900473ffffffffffffffffffffffffffffffffffffffff1673ffffffffffffffffffffffffffffffffffffffff1673ffffffffffffffffffffffffffffffffffffffff168152602001600582015481525050905080600001518160200151826040015183606001518460800151849450829250819150955095509550955095505091939590929450565b600060136000838152602001908152602001600020549050919050565b66038d7ea4c68000341015611990576040517f08c379a00000000000000000000000000000000000000000000000000000000081526004018080602001828103825260178152602001807f496e73756666696369656e742072657475726e2066656500000000000000000081525060200191505060405180910390fd5b6010811015611abb573373ffffffffffffffffffffffffffffffffffffffff16600182601081106119bd57fe5b0160009054906101000a900473ffffffffffffffffffffffffffffffffffffffff1673ffffffffffffffffffffffffffffffffffffffff1614611a68576040517f08c379a00000000000000000000000000000000000000000000000000000000081526004018080602001828103825260158152602001807f596f7520617265206e6f7420746865206f776e6572000000000000000000000081525060200191505060405180910390fd5b600060018260108110611a7757fe5b0160006101000a81548173ffffffffffffffffffffffffffffffffffffffff021916908373ffffffffffffffffffffffffffffffffffffffff160217905550611c79565b60006010820390506012548110611b3a576040517f08c379a000000000000000000000000000000000000000000000000000000000815260040180806020018281038252600d8152602001807f496e76616c69642070657449640000000000000000000000000000000000000081525060200191505060405180910390fd5b3373ffffffffffffffffffffffffffffffffffffffff1660118281548110611b5e57fe5b906000526020600020906006020160040160009054906101000a900473ffffffffffffffffffffffffffffffffffffffff1673ffffffffffffffffffffffffffffffffffffffff1614611c19576040517f08c379a00000000000000000000000000000000000000000000000000000000081526004018080602001828103825260158152602001807f596f7520617265206e6f7420746865206f776e6572000000000000000000000081525060200191505060405180910390fd5b600060118281548110611c2857fe5b906000526020600020906006020160040160006101000a81548173ffffffffffffffffffffffffffffffffffffffff021916908373ffffffffffffffffffffffffffffffffffffffff160217905550505b6000601460003373ffffffffffffffffffffffffffffffffffffffff1673ffffffffffffffffffffffffffffffffffffffff168152602001908152602001600020905060008090505b8180549050811015611d4b5782828281548110611cdb57fe5b90600052602060002001541415611d3e5781600183805490500381548110611cff57fe5b9060005260206000200154828281548110611d1657fe5b906000526020600020018190555081805480919060019003611d389190612137565b50611d4b565b8080600101915050611cc2565b505050565b6000601254905090565b60125481565b66038d7ea4c6800081565b601360008281526020019081526020016000206000815480929190600101919050555050565b655af3107a40003414611def576040517f08c379a00000000000000000000000000000000000000000000000000000000081526004018080602001828103825260228152602001806122096022913960400191505060405180910390fd5b611df76120eb565b6040518060c00160405280868152602001858152602001848152602001838152602001600073ffffffffffffffffffffffffffffffffffffffff16815260200160008152509050601181908060018154018082558091505090600182039060005260206000209060060201600090919290919091506000820151816000019080519060200190611e88929190612163565b50602082015181600101556040820151816002019080519060200190611eaf929190612163565b506060820151816003019080519060200190611ecc929190612163565b5060808201518160040160006101000a81548173ffffffffffffffffffffffffffffffffffffffff021916908373ffffffffffffffffffffffffffffffffffffffff16021790555060a082015181600501555050506012600081548092919060010191905055505050505050565b60003411611fb0576040517f08c379a000000000000000000000000000000000000000000000000000000000815260040180806020018281038252600f8152602001807f446f6e617465206e6f6e2d7a65726f000000000000000000000000000000000081525060200191505060405180910390fd5b565b6000601460008473ffffffffffffffffffffffffffffffffffffffff1673ffffffffffffffffffffffffffffffffffffffff16815260200190815260200160002080549050821061206b576040517f08c379a00000000000000000000000000000000000000000000000000000000081526004018080602001828103825260128152602001807f696e646578206f7574206f662072616e6765000000000000000000000000000081525060200191505060405180910390fd5b601460008473ffffffffffffffffffffffffffffffffffffffff1673ffffffffffffffffffffffffffffffffffffffff16815260200190815260200160002082815481106120b557fe5b9060005260206000200154905092915050565b604051806102000160405280601090602082028038833980820191505090505090565b6040518060c0016040528060608152602001600081526020016060815260200160608152602001600073ffffffffffffffffffffffffffffffffffffffff168152602001600081525090565b81548183558181111561215e5781836000526020600020918201910161215d91906121e3565b5b505050565b828054600181600116156101000203166002900490600052602060002090601f016020900481019282601f106121a457805160ff19168380011785556121d2565b828001600101855582156121d2579182015b828111156121d15782518255916020019190600101906121b6565b5b5090506121df91906121e3565b5090565b61220591905b808211156122015760008160009055506001016121e9565b5090565b9056fe526567697374726174696f6e20726571756972657320302e30303031204574686572a265627a7a72315820b5a200adb9b14589455989d443462066de9e7e774bf42f2a2aa7b4cf4eded99b64736f6c63430005110032",
  "source": "pragma solidity ^0.5.0;\r\n\r\ncontract Adoption {\r\n    uint constant initialPetCount = 16;\r\n    address public owner;\r\n    address[16] public adopters;   // \r\n\r\n    struct Pet {\r\n        string name;\r\n        uint age;\r\n        string location;\r\n        string breed;\r\n        address adopter;\r\n        uint likes;\r\n    }\r\n    Pet[] public newPets;          // \r\n\r\n    uint public newPetsCount;\r\n    mapping(uint => uint) public likes; //  ID \r\n\r\n    uint public constant returnFee = 0.001 ether; // \r\n\r\n    //  ->  ID \r\n    mapping(address => uint[]) public adoptionHistory;\r\n\r\n    constructor() public {\r\n        owner = msg.sender;\r\n    }\r\n\r\n    // \r\n    function adopt(uint petId) public returns (uint) {\r\n        require(petId >= 0, \"Invalid petId\");\r\n        if (petId < initialPetCount) {\r\n            require(adopters[petId] == address(0), \"Pet already adopted\");\r\n            adopters[petId] = msg.sender;\r\n        } else {\r\n            uint index = petId - initialPetCount;\r\n            require(index < newPetsCount, \"Invalid petId\");\r\n            require(newPets[index].adopter == address(0), \"Pet already adopted\");\r\n            newPets[index].adopter = msg.sender;\r\n        }\r\n        // \r\n        adoptionHistory[msg.sender].push(petId);\r\n        return petId;\r\n    }\r\n\r\n    // \r\n    function getAdopters() public view returns (address[16] memory) {\r\n        return adopters;\r\n    }\r\n\r\n    //  0.0001 ETH\r\n    function registerPet(\r\n        string memory name,\r\n        uint age,\r\n        string memory location,\r\n        string memory breed\r\n    )\r\n        public\r\n        payable\r\n    {\r\n        require(msg.value == 0.0001 ether, \"Registration requires 0.0001 Ether\");\r\n        Pet memory pet = Pet(name, age, location, breed, address(0), 0);\r\n        newPets.push(pet);\r\n        newPetsCount++;\r\n    }\r\n\r\n    // \r\n    function getNewPetsCount() public view returns (uint) {\r\n        return newPetsCount;\r\n    }\r\n\r\n    //  index \r\n    function getNewPet(uint index)\r\n        public\r\n        view\r\n        returns (\r\n            string memory,\r\n            uint,\r\n            string memory,\r\n            string memory,\r\n            address\r\n        )\r\n    {\r\n        require(index < newPetsCount, \"Invalid index\");\r\n        Pet memory pet = newPets[index];\r\n        return (pet.name, pet.age, pet.location, pet.breed, pet.adopter);\r\n    }\r\n\r\n    // \r\n    function likePet(uint petId) public {\r\n        likes[petId]++;\r\n    }\r\n\r\n    function getLikes(uint petId) public view returns (uint) {\r\n        return likes[petId];\r\n    }\r\n\r\n    // \r\n    function donate() public payable {\r\n        require(msg.value > 0, \"Donate non-zero\");\r\n    }\r\n\r\n    // \r\n    function returnPet(uint petId) public payable {\r\n        require(msg.value >= returnFee, \"Insufficient return fee\");\r\n        if (petId < initialPetCount) {\r\n            require(adopters[petId] == msg.sender, \"You are not the owner\");\r\n            adopters[petId] = address(0);\r\n        } else {\r\n            uint index = petId - initialPetCount;\r\n            require(index < newPetsCount, \"Invalid petId\");\r\n            require(newPets[index].adopter == msg.sender, \"You are not the owner\");\r\n            newPets[index].adopter = address(0);\r\n        }\r\n        // \r\n        uint[] storage hist = adoptionHistory[msg.sender];\r\n        for (uint i = 0; i < hist.length; i++) {\r\n            if (hist[i] == petId) {\r\n                // \r\n                hist[i] = hist[hist.length - 1];\r\n                hist.length--;\r\n                break;\r\n            }\r\n        }\r\n    }\r\n\r\n    // \r\n    function getAdoptionHistory(address user) public view returns (uint[] memory) {\r\n        return adoptionHistory[user];\r\n    }\r\n\r\n    // /owner \r\n    function getBalance() public view returns (uint) {\r\n        return address(this).balance;\r\n    }\r\n\r\n    // Owner \r\n    function withdraw(uint amount) public {\r\n        require(msg.sender == owner, \"Only owner can withdraw\");\r\n        require(amount <= address(this).balance, \"Insufficient balance\");\r\n        address payable receiver = address(uint160(owner));\r\n        receiver.transfer(amount);\r\n    }\r\n\t\r\n    // \r\n    function getAdoptionHistoryCount(address user) public view returns (uint) {\r\n        return adoptionHistory[user].length;\r\n    }\r\n\r\n    // \r\n    function getAdoptionHistoryAt(address user, uint idx) public view returns (uint) {\r\n        require(idx < adoptionHistory[user].length, \"index out of range\");\r\n        return adoptionHistory[user][idx];\r\n    }\r\n}\r\n",
  "sourcePath": "/home/lglsj/Ether_Petshop/contracts/Adoption.sol",
  "compiler": {
    "name": "solc",
    "version": "0.5.17+commit.d19bba13.Emscripten.clang"
  },
  "schemaVersion": "3.4.16",
  "updatedAt": "2025-10-22T22:26:23.780Z",
  "networkType": "ethereum",
  "devdoc": {
    "methods": {}
  },
  "userdoc": {
    "methods": {}
  }
}